{
  "_format": "hh-sol-artifact-1",
  "contractName": "Ballot",
  "sourceName": "contracts/TokenisedBallot.sol",
  "abi": [
    {
      "inputs": [
        {
          "internalType": "bytes32[]",
          "name": "proposalNames",
          "type": "bytes32[]"
        },
        {
          "internalType": "address",
          "name": "_tokenContract",
          "type": "address"
        },
        {
          "internalType": "uint256",
          "name": "_targetBlockNumber",
          "type": "uint256"
        }
      ],
      "stateMutability": "nonpayable",
      "type": "constructor"
    },
    {
      "inputs": [
        {
          "internalType": "uint256",
          "name": "",
          "type": "uint256"
        }
      ],
      "name": "proposals",
      "outputs": [
        {
          "internalType": "bytes32",
          "name": "name",
          "type": "bytes32"
        },
        {
          "internalType": "uint256",
          "name": "voteCount",
          "type": "uint256"
        }
      ],
      "stateMutability": "view",
      "type": "function"
    },
    {
      "inputs": [],
      "name": "targetBlockNumber",
      "outputs": [
        {
          "internalType": "uint256",
          "name": "",
          "type": "uint256"
        }
      ],
      "stateMutability": "view",
      "type": "function"
    },
    {
      "inputs": [],
      "name": "tokenContract",
      "outputs": [
        {
          "internalType": "contract IMyToken",
          "name": "",
          "type": "address"
        }
      ],
      "stateMutability": "view",
      "type": "function"
    },
    {
      "inputs": [
        {
          "internalType": "uint256",
          "name": "proposal",
          "type": "uint256"
        },
        {
          "internalType": "uint256",
          "name": "amount",
          "type": "uint256"
        }
      ],
      "name": "vote",
      "outputs": [],
      "stateMutability": "nonpayable",
      "type": "function"
    },
    {
      "inputs": [
        {
          "internalType": "address",
          "name": "account",
          "type": "address"
        }
      ],
      "name": "votingPower",
      "outputs": [
        {
          "internalType": "uint256",
          "name": "",
          "type": "uint256"
        }
      ],
      "stateMutability": "view",
      "type": "function"
    },
    {
      "inputs": [
        {
          "internalType": "address",
          "name": "",
          "type": "address"
        }
      ],
      "name": "votingPowerSpent",
      "outputs": [
        {
          "internalType": "uint256",
          "name": "",
          "type": "uint256"
        }
      ],
      "stateMutability": "view",
      "type": "function"
    },
    {
      "inputs": [],
      "name": "winnerName",
      "outputs": [
        {
          "internalType": "bytes32",
          "name": "winnerName_",
          "type": "bytes32"
        }
      ],
      "stateMutability": "view",
      "type": "function"
    },
    {
      "inputs": [],
      "name": "winningProposal",
      "outputs": [
        {
          "internalType": "uint256",
          "name": "winningProposal_",
          "type": "uint256"
        }
      ],
      "stateMutability": "view",
      "type": "function"
    }
  ],
  "bytecode": "0x60806040523480156200001157600080fd5b5060405162000d2c38038062000d2c833981810160405281019062000037919062000383565b816000806101000a81548173ffffffffffffffffffffffffffffffffffffffff021916908373ffffffffffffffffffffffffffffffffffffffff1602179055508060028190555060005b8351811015620001155760016040518060400160405280868481518110620000ae57620000ad620003fe565b5b60200260200101518152602001600081525090806001815401808255809150506001900390600052602060002090600202016000909190919091506000820151816000015560208201518160010155505080806200010c906200045c565b91505062000081565b50505050620004a9565b6000604051905090565b600080fd5b600080fd5b600080fd5b6000601f19601f8301169050919050565b7f4e487b7100000000000000000000000000000000000000000000000000000000600052604160045260246000fd5b620001838262000138565b810181811067ffffffffffffffff82111715620001a557620001a462000149565b5b80604052505050565b6000620001ba6200011f565b9050620001c8828262000178565b919050565b600067ffffffffffffffff821115620001eb57620001ea62000149565b5b602082029050602081019050919050565b600080fd5b6000819050919050565b620002168162000201565b81146200022257600080fd5b50565b60008151905062000236816200020b565b92915050565b6000620002536200024d84620001cd565b620001ae565b90508083825260208201905060208402830185811115620002795762000278620001fc565b5b835b81811015620002a6578062000291888262000225565b8452602084019350506020810190506200027b565b5050509392505050565b600082601f830112620002c857620002c762000133565b5b8151620002da8482602086016200023c565b91505092915050565b600073ffffffffffffffffffffffffffffffffffffffff82169050919050565b60006200031082620002e3565b9050919050565b620003228162000303565b81146200032e57600080fd5b50565b600081519050620003428162000317565b92915050565b6000819050919050565b6200035d8162000348565b81146200036957600080fd5b50565b6000815190506200037d8162000352565b92915050565b6000806000606084860312156200039f576200039e62000129565b5b600084015167ffffffffffffffff811115620003c057620003bf6200012e565b5b620003ce86828701620002b0565b9350506020620003e18682870162000331565b9250506040620003f4868287016200036c565b9150509250925092565b7f4e487b7100000000000000000000000000000000000000000000000000000000600052603260045260246000fd5b7f4e487b7100000000000000000000000000000000000000000000000000000000600052601160045260246000fd5b6000620004698262000348565b91507fffffffffffffffffffffffffffffffffffffffffffffffffffffffffffffffff82036200049e576200049d6200042d565b5b600182019050919050565b61087380620004b96000396000f3fe608060405234801561001057600080fd5b50600436106100885760003560e01c8063a72003511161005b578063a720035114610118578063b384abef14610148578063c07473f614610164578063e2ba53f01461019457610088565b8063013cf08b1461008d5780632a8cd29e146100be57806355a373d6146100dc578063609ff1bd146100fa575b600080fd5b6100a760048036038101906100a291906104bc565b6101b2565b6040516100b5929190610511565b60405180910390f35b6100c66101e6565b6040516100d3919061053a565b60405180910390f35b6100e46101ec565b6040516100f191906105d4565b60405180910390f35b610102610210565b60405161010f919061053a565b60405180910390f35b610132600480360381019061012d919061062d565b610298565b60405161013f919061053a565b60405180910390f35b610162600480360381019061015d919061065a565b6102b0565b005b61017e6004803603810190610179919061062d565b6103a5565b60405161018b919061053a565b60405180910390f35b61019c61044d565b6040516101a9919061069a565b60405180910390f35b600181815481106101c257600080fd5b90600052602060002090600202016000915090508060000154908060010154905082565b60025481565b60008054906101000a900473ffffffffffffffffffffffffffffffffffffffff1681565b6000806000905060005b60018054905081101561029357816001828154811061023c5761023b6106b5565b5b90600052602060002090600202016001015411156102805760018181548110610268576102676106b5565b5b90600052602060002090600202016001015491508092505b808061028b90610713565b91505061021a565b505090565b60036020528060005260406000206000915090505481565b80600360003373ffffffffffffffffffffffffffffffffffffffff1673ffffffffffffffffffffffffffffffffffffffff168152602001908152602001600020546102fa336103a5565b610304919061075b565b101561030f57600080fd5b8060018381548110610324576103236106b5565b5b90600052602060002090600202016001016000828254610344919061078f565b9250508190555080600360003373ffffffffffffffffffffffffffffffffffffffff1673ffffffffffffffffffffffffffffffffffffffff168152602001908152602001600020600082825461039a919061078f565b925050819055505050565b60008060009054906101000a900473ffffffffffffffffffffffffffffffffffffffff1673ffffffffffffffffffffffffffffffffffffffff16633a46b1a8836002546040518363ffffffff1660e01b81526004016104059291906107d2565b602060405180830381865afa158015610422573d6000803e3d6000fd5b505050506040513d601f19601f820116820180604052508101906104469190610810565b9050919050565b60006001610459610210565b8154811061046a576104696106b5565b5b906000526020600020906002020160000154905090565b600080fd5b6000819050919050565b61049981610486565b81146104a457600080fd5b50565b6000813590506104b681610490565b92915050565b6000602082840312156104d2576104d1610481565b5b60006104e0848285016104a7565b91505092915050565b6000819050919050565b6104fc816104e9565b82525050565b61050b81610486565b82525050565b600060408201905061052660008301856104f3565b6105336020830184610502565b9392505050565b600060208201905061054f6000830184610502565b92915050565b600073ffffffffffffffffffffffffffffffffffffffff82169050919050565b6000819050919050565b600061059a61059561059084610555565b610575565b610555565b9050919050565b60006105ac8261057f565b9050919050565b60006105be826105a1565b9050919050565b6105ce816105b3565b82525050565b60006020820190506105e960008301846105c5565b92915050565b60006105fa82610555565b9050919050565b61060a816105ef565b811461061557600080fd5b50565b60008135905061062781610601565b92915050565b60006020828403121561064357610642610481565b5b600061065184828501610618565b91505092915050565b6000806040838503121561067157610670610481565b5b600061067f858286016104a7565b9250506020610690858286016104a7565b9150509250929050565b60006020820190506106af60008301846104f3565b92915050565b7f4e487b7100000000000000000000000000000000000000000000000000000000600052603260045260246000fd5b7f4e487b7100000000000000000000000000000000000000000000000000000000600052601160045260246000fd5b600061071e82610486565b91507fffffffffffffffffffffffffffffffffffffffffffffffffffffffffffffffff82036107505761074f6106e4565b5b600182019050919050565b600061076682610486565b915061077183610486565b9250828203905081811115610789576107886106e4565b5b92915050565b600061079a82610486565b91506107a583610486565b92508282019050808211156107bd576107bc6106e4565b5b92915050565b6107cc816105ef565b82525050565b60006040820190506107e760008301856107c3565b6107f46020830184610502565b9392505050565b60008151905061080a81610490565b92915050565b60006020828403121561082657610825610481565b5b6000610834848285016107fb565b9150509291505056fea2646970667358221220eaba5c5560f017f2570a2053036a87981a220ee268f5013734d2ed54e5886c3d64736f6c63430008110033",
  "linkReferences": {},
  "deployedLinkReferences": {}
}