{
  "_format": "hh-sol-artifact-1",
  "contractName": "LotteryCloneFactory",
  "sourceName": "contracts/CloneFactory/LotteryCloneFactory.sol",
  "abi": [
    {
      "inputs": [
        {
          "internalType": "address",
          "name": "_masterContract",
          "type": "address"
        }
      ],
      "stateMutability": "nonpayable",
      "type": "constructor"
    },
    {
      "inputs": [
        {
          "internalType": "string",
          "name": "tokenName",
          "type": "string"
        },
        {
          "internalType": "string",
          "name": "tokenSymbol",
          "type": "string"
        },
        {
          "internalType": "uint256",
          "name": "_purchaseRatio",
          "type": "uint256"
        },
        {
          "internalType": "uint256",
          "name": "_betPrice",
          "type": "uint256"
        },
        {
          "internalType": "uint256",
          "name": "_betFee",
          "type": "uint256"
        }
      ],
      "name": "createLottery",
      "outputs": [],
      "stateMutability": "nonpayable",
      "type": "function"
    },
    {
      "inputs": [],
      "name": "getLottery",
      "outputs": [
        {
          "internalType": "contract Lottery[]",
          "name": "",
          "type": "address[]"
        }
      ],
      "stateMutability": "view",
      "type": "function"
    },
    {
      "inputs": [
        {
          "internalType": "uint256",
          "name": "",
          "type": "uint256"
        }
      ],
      "name": "lotterys",
      "outputs": [
        {
          "internalType": "contract Lottery",
          "name": "",
          "type": "address"
        }
      ],
      "stateMutability": "view",
      "type": "function"
    }
  ],
  "bytecode": "0x608060405234801561001057600080fd5b5060405161094c38038061094c833981810160405281019061003291906100dc565b80600160006101000a81548173ffffffffffffffffffffffffffffffffffffffff021916908373ffffffffffffffffffffffffffffffffffffffff16021790555050610109565b600080fd5b600073ffffffffffffffffffffffffffffffffffffffff82169050919050565b60006100a98261007e565b9050919050565b6100b98161009e565b81146100c457600080fd5b50565b6000815190506100d6816100b0565b92915050565b6000602082840312156100f2576100f1610079565b5b6000610100848285016100c7565b91505092915050565b610834806101186000396000f3fe608060405234801561001057600080fd5b50600436106100415760003560e01c80637e3d880314610046578063866c469d14610076578063cbc2cce714610092575b600080fd5b610060600480360381019061005b9190610340565b6100b0565b60405161006d91906103ec565b60405180910390f35b610090600480360381019061008b919061054d565b6100ef565b005b61009a6101fe565b6040516100a791906106be565b60405180910390f35b600081815481106100c057600080fd5b906000526020600020016000915054906101000a900473ffffffffffffffffffffffffffffffffffffffff1681565b600061011c600160009054906101000a900473ffffffffffffffffffffffffffffffffffffffff1661028c565b90508073ffffffffffffffffffffffffffffffffffffffff1663318edc208787878787336040518763ffffffff1660e01b81526004016101619695949392919061078f565b600060405180830381600087803b15801561017b57600080fd5b505af115801561018f573d6000803e3d6000fd5b505050506000819080600181540180825580915050600190039060005260206000200160009091909190916101000a81548173ffffffffffffffffffffffffffffffffffffffff021916908373ffffffffffffffffffffffffffffffffffffffff160217905550505050505050565b6060600080548060200260200160405190810160405280929190818152602001828054801561028257602002820191906000526020600020905b8160009054906101000a900473ffffffffffffffffffffffffffffffffffffffff1673ffffffffffffffffffffffffffffffffffffffff1681526020019060010190808311610238575b5050505050905090565b6000808260601b90506040517f3d602d80600a3d3981f3363d3d373d3d3d363d7300000000000000000000000081528160148201527f5af43d82803e903d91602b57fd5bf3000000000000000000000000000000000060288201526037816000f092505050919050565b6000604051905090565b600080fd5b600080fd5b6000819050919050565b61031d8161030a565b811461032857600080fd5b50565b60008135905061033a81610314565b92915050565b60006020828403121561035657610355610300565b5b60006103648482850161032b565b91505092915050565b600073ffffffffffffffffffffffffffffffffffffffff82169050919050565b6000819050919050565b60006103b26103ad6103a88461036d565b61038d565b61036d565b9050919050565b60006103c482610397565b9050919050565b60006103d6826103b9565b9050919050565b6103e6816103cb565b82525050565b600060208201905061040160008301846103dd565b92915050565b600080fd5b600080fd5b6000601f19601f8301169050919050565b7f4e487b7100000000000000000000000000000000000000000000000000000000600052604160045260246000fd5b61045a82610411565b810181811067ffffffffffffffff8211171561047957610478610422565b5b80604052505050565b600061048c6102f6565b90506104988282610451565b919050565b600067ffffffffffffffff8211156104b8576104b7610422565b5b6104c182610411565b9050602081019050919050565b82818337600083830152505050565b60006104f06104eb8461049d565b610482565b90508281526020810184848401111561050c5761050b61040c565b5b6105178482856104ce565b509392505050565b600082601f83011261053457610533610407565b5b81356105448482602086016104dd565b91505092915050565b600080600080600060a0868803121561056957610568610300565b5b600086013567ffffffffffffffff81111561058757610586610305565b5b6105938882890161051f565b955050602086013567ffffffffffffffff8111156105b4576105b3610305565b5b6105c08882890161051f565b94505060406105d18882890161032b565b93505060606105e28882890161032b565b92505060806105f38882890161032b565b9150509295509295909350565b600081519050919050565b600082825260208201905092915050565b6000819050602082019050919050565b610635816103cb565b82525050565b6000610647838361062c565b60208301905092915050565b6000602082019050919050565b600061066b82610600565b610675818561060b565b93506106808361061c565b8060005b838110156106b1578151610698888261063b565b97506106a383610653565b925050600181019050610684565b5085935050505092915050565b600060208201905081810360008301526106d88184610660565b905092915050565b600081519050919050565b600082825260208201905092915050565b60005b8381101561071a5780820151818401526020810190506106ff565b60008484015250505050565b6000610731826106e0565b61073b81856106eb565b935061074b8185602086016106fc565b61075481610411565b840191505092915050565b6107688161030a565b82525050565b60006107798261036d565b9050919050565b6107898161076e565b82525050565b600060c08201905081810360008301526107a98189610726565b905081810360208301526107bd8188610726565b90506107cc604083018761075f565b6107d9606083018661075f565b6107e6608083018561075f565b6107f360a0830184610780565b97965050505050505056fea2646970667358221220775e6fe42a9594335b89e4d7ad5fee675dbbea5fc45084e392d0301821555afe64736f6c63430008120033",
  "linkReferences": {},
  "deployedLinkReferences": {}
}